{
  "contractName": "PetShop",
  "abi": [
    {
      "inputs": [],
      "name": "getPets",
      "outputs": [
        {
          "components": [
            {
              "internalType": "uint256",
              "name": "rate",
              "type": "uint256"
            },
            {
              "internalType": "enum PetShop.Status",
              "name": "status",
              "type": "uint8"
            },
            {
              "internalType": "enum PetShop.Breed",
              "name": "breed",
              "type": "uint8"
            },
            {
              "internalType": "uint256",
              "name": "age",
              "type": "uint256"
            },
            {
              "internalType": "address payable",
              "name": "owner",
              "type": "address"
            },
            {
              "internalType": "uint256",
              "name": "index",
              "type": "uint256"
            }
          ],
          "internalType": "struct PetShop.pet[]",
          "name": "",
          "type": "tuple[]"
        }
      ],
      "stateMutability": "view",
      "type": "function",
      "constant": true
    },
    {
      "inputs": [
        {
          "internalType": "uint256",
          "name": "_rate",
          "type": "uint256"
        },
        {
          "internalType": "enum PetShop.Breed",
          "name": "_breed",
          "type": "uint8"
        },
        {
          "internalType": "uint256",
          "name": "_age",
          "type": "uint256"
        }
      ],
      "name": "addPet",
      "outputs": [],
      "stateMutability": "payable",
      "type": "function",
      "payable": true
    },
    {
      "inputs": [
        {
          "internalType": "uint256",
          "name": "_index",
          "type": "uint256"
        }
      ],
      "name": "buyPet",
      "outputs": [],
      "stateMutability": "payable",
      "type": "function",
      "payable": true
    }
  ],
  "bytecode": "0x6080604052600060025534801561001557600080fd5b5061093b806100256000396000f3fe6080604052600436106100345760003560e01c80636d71ad38146100395780639edded1114610064578063e9cba63914610080575b600080fd5b34801561004557600080fd5b5061004e61009c565b60405161005b9190610792565b60405180910390f35b61007e6004803603810190610079919061056d565b6101c9565b005b61009a60048036038101906100959190610596565b6103f0565b005b60606001805480602002602001604051908101604052809291908181526020016000905b828210156101c057838290600052602060002090600502016040518060c0016040529081600082015481526020016001820160009054906101000a900460ff16600181111561010b57fe5b600181111561011657fe5b81526020016001820160019054906101000a900460ff16600381111561013857fe5b600381111561014357fe5b8152602001600282015481526020016003820160009054906101000a900473ffffffffffffffffffffffffffffffffffffffff1673ffffffffffffffffffffffffffffffffffffffff1673ffffffffffffffffffffffffffffffffffffffff168152602001600482015481525050815260200190600101906100c0565b50505050905090565b600060018111156101d657fe5b600182815481106101e357fe5b906000526020600020906005020160010160009054906101000a900460ff16600181111561020d57fe5b1461024d576040517f08c379a0000000000000000000000000000000000000000000000000000000008152600401610244906107d4565b60405180910390fd5b6001818154811061025a57fe5b9060005260206000209060050201600001543410156102ae576040517f08c379a00000000000000000000000000000000000000000000000000000000081526004016102a5906107b4565b60405180910390fd5b600181815481106102bb57fe5b906000526020600020906005020160030160009054906101000a900473ffffffffffffffffffffffffffffffffffffffff1673ffffffffffffffffffffffffffffffffffffffff166108fc6001838154811061031357fe5b9060005260206000209060050201600001549081150290604051600060405180830381858888f19350505050158015610350573d6000803e3d6000fd5b50600180828154811061035f57fe5b906000526020600020906005020160010160006101000a81548160ff0219169083600181111561038b57fe5b0217905550336001828154811061039e57fe5b906000526020600020906005020160030160006101000a81548173ffffffffffffffffffffffffffffffffffffffff021916908373ffffffffffffffffffffffffffffffffffffffff16021790555050565b60016040518060c001604052808581526020016000600181111561041057fe5b815260200184600381111561042157fe5b81526020018381526020013373ffffffffffffffffffffffffffffffffffffffff168152602001600260008154809291906001019190505581525090806001815401808255809150506001900390600052602060002090600502016000909190919091506000820151816000015560208201518160010160006101000a81548160ff021916908360018111156104b357fe5b021790555060408201518160010160016101000a81548160ff021916908360038111156104dc57fe5b02179055506060820151816002015560808201518160030160006101000a81548173ffffffffffffffffffffffffffffffffffffffff021916908373ffffffffffffffffffffffffffffffffffffffff16021790555060a082015181600401555050505050565b600081359050610552816108de565b92915050565b600081359050610567816108ee565b92915050565b60006020828403121561057f57600080fd5b600061058d84828501610558565b91505092915050565b6000806000606084860312156105ab57600080fd5b60006105b986828701610558565b93505060206105ca86828701610543565b92505060406105db86828701610558565b9150509250925092565b60006105f18383610708565b60c08301905092915050565b6106068161083e565b82525050565b600061061782610804565b610621818561081c565b935061062c836107f4565b8060005b8381101561065d57815161064488826105e5565b975061064f8361080f565b925050600181019050610630565b5085935050505092915050565b610673816108a0565b82525050565b610682816108b2565b82525050565b600061069560208361082d565b91507f576520646f6e277420616363657074207061727469616c207061796d656e74736000830152602082019050919050565b60006106d5601e8361082d565b91507f54686973207065742068617320616c7265616479206265656e20736f6c6400006000830152602082019050919050565b60c08201600082015161071e6000850182610783565b5060208201516107316020850182610679565b506040820151610744604085018261066a565b5060608201516107576060850182610783565b50608082015161076a60808501826105fd565b5060a082015161077d60a0850182610783565b50505050565b61078c81610896565b82525050565b600060208201905081810360008301526107ac818461060c565b905092915050565b600060208201905081810360008301526107cd81610688565b9050919050565b600060208201905081810360008301526107ed816106c8565b9050919050565b6000819050602082019050919050565b600081519050919050565b6000602082019050919050565b600082825260208201905092915050565b600082825260208201905092915050565b600061084982610876565b9050919050565b600081905061085e826108c4565b919050565b6000819050610871826108d1565b919050565b600073ffffffffffffffffffffffffffffffffffffffff82169050919050565b6000819050919050565b60006108ab82610850565b9050919050565b60006108bd82610863565b9050919050565b600481106108ce57fe5b50565b600281106108db57fe5b50565b600481106108eb57600080fd5b50565b6108f781610896565b811461090257600080fd5b5056fea2646970667358221220304827082a63e0c68b0f83a366c5e5cff56c03663b56be2300016cb3996cf22a64736f6c63430006060033",
  "source": "pragma solidity ^0.6.6;\r\npragma experimental ABIEncoderV2;\r\n\r\ncontract PetShop {\r\n    enum Breed { German_Shepherd, Bulldog, Labrador, Husky }\r\n    enum Status {unsold, sold}\r\n    mapping(Breed => string) breedLinks;\r\n    \r\n    struct pet {\r\n        uint rate;\r\n        Status status;\r\n        Breed breed;\r\n        uint age;\r\n        address payable owner;\r\n        uint index;\r\n    }\r\n    \r\n    pet[] pets;\r\n    \r\n    uint index = 0;\r\n    \r\n    function getPets() public view returns(pet[] memory) {\r\n        return pets;\r\n    }\r\n    \r\n    function addPet(uint _rate, Breed _breed, uint _age) public payable{\r\n        pets.push(pet({\r\n            rate: _rate,\r\n            breed: _breed,\r\n            age: _age,\r\n            owner: msg.sender,\r\n            status: Status.unsold,\r\n            index: index++\r\n        }));\r\n    }\r\n    \r\n    function buyPet(uint _index) public payable {\r\n        require(pets[_index].status == Status.unsold, \"This pet has already been sold\");\r\n        require(msg.value >= (pets[_index].rate), \"We don't accept partial payments\");\r\n        (pets[_index].owner).transfer(pets[_index].rate);\r\n        pets[_index].status = Status.sold;\r\n        pets[_index].owner = msg.sender;\r\n    }\r\n    \r\n}\r\n",
  "sourcePath": "C:\\Users\\shika\\Desktop\\blockchain\\practice\\petshop 2\\contracts\\PetShop.sol",
  "compiler": {
    "name": "solc",
    "version": "0.6.6+commit.6c089d02.Emscripten.clang"
  },
  "schemaVersion": "3.0.23",
  "updatedAt": "2020-11-20T14:23:40.796Z",
  "networkType": "ethereum",
  "devdoc": {
    "methods": {}
  },
  "userdoc": {
    "methods": {}
  }
}